{
  "address": "0x5FbDB2315678afecb367f032d93F642f64180aa3",
  "abi": [
    {
      "inputs": [],
      "stateMutability": "nonpayable",
      "type": "constructor"
    },
    {
      "inputs": [],
      "name": "PropertyOwnership__InvalidOwner",
      "type": "error"
    },
    {
      "inputs": [],
      "name": "PropertyOwnership__InvalidPrice",
      "type": "error"
    },
    {
      "inputs": [],
      "name": "PropertyOwnership__InvalidPropertyId",
      "type": "error"
    },
    {
      "inputs": [],
      "name": "PropertyOwnership__NoPndingRequests",
      "type": "error"
    },
    {
      "inputs": [],
      "name": "PropertyOwnership__NotOwner",
      "type": "error"
    },
    {
      "anonymous": false,
      "inputs": [
        {
          "indexed": true,
          "internalType": "uint256",
          "name": "propertyId",
          "type": "uint256"
        },
        {
          "indexed": true,
          "internalType": "address",
          "name": "requester",
          "type": "address"
        },
        {
          "indexed": false,
          "internalType": "uint256",
          "name": "price",
          "type": "uint256"
        }
      ],
      "name": "OwnershipTransferRequested",
      "type": "event"
    },
    {
      "anonymous": false,
      "inputs": [
        {
          "indexed": true,
          "internalType": "uint256",
          "name": "propertyId",
          "type": "uint256"
        },
        {
          "indexed": true,
          "internalType": "address",
          "name": "previousOwner",
          "type": "address"
        },
        {
          "indexed": true,
          "internalType": "address",
          "name": "newOwner",
          "type": "address"
        }
      ],
      "name": "OwnershipTransferred",
      "type": "event"
    },
    {
      "anonymous": false,
      "inputs": [
        {
          "indexed": true,
          "internalType": "uint256",
          "name": "propertyId",
          "type": "uint256"
        },
        {
          "indexed": false,
          "internalType": "uint256",
          "name": "price",
          "type": "uint256"
        }
      ],
      "name": "PropertyAdded",
      "type": "event"
    },
    {
      "inputs": [
        {
          "internalType": "uint256",
          "name": "price",
          "type": "uint256"
        }
      ],
      "name": "addProperty",
      "outputs": [],
      "stateMutability": "nonpayable",
      "type": "function"
    },
    {
      "inputs": [
        {
          "internalType": "uint256",
          "name": "propertyId",
          "type": "uint256"
        },
        {
          "internalType": "address",
          "name": "newOwner",
          "type": "address"
        }
      ],
      "name": "approveOwnershipTransfer",
      "outputs": [],
      "stateMutability": "nonpayable",
      "type": "function"
    },
    {
      "inputs": [
        {
          "internalType": "uint256",
          "name": "propertyId",
          "type": "uint256"
        }
      ],
      "name": "cancelOwnershipTransfer",
      "outputs": [],
      "stateMutability": "nonpayable",
      "type": "function"
    },
    {
      "inputs": [],
      "name": "getAllProperties",
      "outputs": [
        {
          "components": [
            {
              "internalType": "uint256",
              "name": "propertyId",
              "type": "uint256"
            },
            {
              "internalType": "address",
              "name": "owner",
              "type": "address"
            },
            {
              "internalType": "uint256",
              "name": "price",
              "type": "uint256"
            }
          ],
          "internalType": "struct PropertyOwnership.PropertyDetails[]",
          "name": "",
          "type": "tuple[]"
        }
      ],
      "stateMutability": "view",
      "type": "function"
    },
    {
      "inputs": [],
      "name": "getBalance",
      "outputs": [
        {
          "internalType": "uint256",
          "name": "",
          "type": "uint256"
        }
      ],
      "stateMutability": "view",
      "type": "function"
    },
    {
      "inputs": [],
      "name": "getContractOwner",
      "outputs": [
        {
          "internalType": "address",
          "name": "",
          "type": "address"
        }
      ],
      "stateMutability": "view",
      "type": "function"
    },
    {
      "inputs": [],
      "name": "getNextPropertyId",
      "outputs": [
        {
          "internalType": "uint256",
          "name": "",
          "type": "uint256"
        }
      ],
      "stateMutability": "view",
      "type": "function"
    },
    {
      "inputs": [
        {
          "internalType": "uint256",
          "name": "propertyId",
          "type": "uint256"
        }
      ],
      "name": "getOwner",
      "outputs": [
        {
          "internalType": "address",
          "name": "",
          "type": "address"
        }
      ],
      "stateMutability": "view",
      "type": "function"
    },
    {
      "inputs": [
        {
          "internalType": "uint256",
          "name": "propertyid",
          "type": "uint256"
        }
      ],
      "name": "getPendingRequest",
      "outputs": [
        {
          "components": [
            {
              "internalType": "address",
              "name": "requester",
              "type": "address"
            },
            {
              "internalType": "uint256",
              "name": "price",
              "type": "uint256"
            },
            {
              "internalType": "uint256",
              "name": "timestamp",
              "type": "uint256"
            }
          ],
          "internalType": "struct PropertyOwnership.OwnershipTransferRequest",
          "name": "",
          "type": "tuple"
        }
      ],
      "stateMutability": "view",
      "type": "function"
    },
    {
      "inputs": [
        {
          "internalType": "uint256",
          "name": "propertyId",
          "type": "uint256"
        }
      ],
      "name": "getPrice",
      "outputs": [
        {
          "internalType": "uint256",
          "name": "",
          "type": "uint256"
        }
      ],
      "stateMutability": "view",
      "type": "function"
    },
    {
      "inputs": [
        {
          "internalType": "uint256",
          "name": "propertyId",
          "type": "uint256"
        }
      ],
      "name": "requestOwnershipTransfer",
      "outputs": [],
      "stateMutability": "payable",
      "type": "function"
    }
  ],
  "transactionHash": "0xbcf99c8e216169f74fd19be42f82a73d8c927c0860b962f840a610cf96553306",
  "args": [],
  "numDeployments": 1,
  "solcInputHash": "4744de789341646f3ccc6c6749c4ba72",
  "bytecode": "0x608060405234801561001057600080fd5b50336000806101000a81548173ffffffffffffffffffffffffffffffffffffffff021916908373ffffffffffffffffffffffffffffffffffffffff16021790555060018081905550611425806100676000396000f3fe60806040526004361061009c5760003560e01c806382f1d3031161006457806382f1d30314610174578063bb5095d614610190578063c41a360a146101bb578063daf484e0146101f8578063dbdeccbc14610235578063e75722301461025e5761009c565b806312065fe0146100a1578063267982e8146100cc5780633d51402c146100f5578063442890d5146101205780636b3c6c981461014b575b600080fd5b3480156100ad57600080fd5b506100b661029b565b6040516100c39190610f53565b60405180910390f35b3480156100d857600080fd5b506100f360048036038101906100ee9190610f9f565b6102a3565b005b34801561010157600080fd5b5061010a61040b565b604051610117919061110d565b60405180910390f35b34801561012c57600080fd5b5061013561053f565b604051610142919061113e565b60405180910390f35b34801561015757600080fd5b50610172600480360381019061016d9190610f9f565b610568565b005b61018e60048036038101906101899190610f9f565b6107e3565b005b34801561019c57600080fd5b506101a5610a56565b6040516101b29190610f53565b60405180910390f35b3480156101c757600080fd5b506101e260048036038101906101dd9190610f9f565b610a60565b6040516101ef919061113e565b60405180910390f35b34801561020457600080fd5b5061021f600480360381019061021a9190610f9f565b610a9d565b60405161022c919061119b565b60405180910390f35b34801561024157600080fd5b5061025c600480360381019061025791906111e2565b610b34565b005b34801561026a57600080fd5b5061028560048036038101906102809190610f9f565b610eaf565b6040516102929190610f53565b60405180910390f35b600047905090565b60008054906101000a900473ffffffffffffffffffffffffffffffffffffffff1673ffffffffffffffffffffffffffffffffffffffff163373ffffffffffffffffffffffffffffffffffffffff1614610328576040517ff5159a2200000000000000000000000000000000000000000000000000000000815260040160405180910390fd5b60008054906101000a900473ffffffffffffffffffffffffffffffffffffffff1660026000600154815260200190815260200160002060006101000a81548173ffffffffffffffffffffffffffffffffffffffff021916908373ffffffffffffffffffffffffffffffffffffffff16021790555080600360006001548152602001908152602001600020819055506001547f8c12dc081f3afb7b8cf4b4eafe341721d78a8ab3e76d8e5adcaccd8ecefb3af3826040516103e89190610f53565b60405180910390a26001600081548092919061040390611251565b919050555050565b606060006001805461041d919061129a565b67ffffffffffffffff811115610436576104356112ce565b5b60405190808252806020026020018201604052801561046f57816020015b61045c610ecc565b8152602001906001900390816104545790505b5090506000600190505b6001548110156105375760405180606001604052808281526020016002600084815260200190815260200160002060009054906101000a900473ffffffffffffffffffffffffffffffffffffffff1673ffffffffffffffffffffffffffffffffffffffff168152602001600360008481526020019081526020016000205481525082600183610508919061129a565b81518110610519576105186112fd565b5b6020026020010181905250808061052f90611251565b915050610479565b508091505090565b60008060009054906101000a900473ffffffffffffffffffffffffffffffffffffffff16905090565b60008054906101000a900473ffffffffffffffffffffffffffffffffffffffff1673ffffffffffffffffffffffffffffffffffffffff163373ffffffffffffffffffffffffffffffffffffffff161415801561062657506004600082815260200190815260200160002060000160009054906101000a900473ffffffffffffffffffffffffffffffffffffffff1673ffffffffffffffffffffffffffffffffffffffff163373ffffffffffffffffffffffffffffffffffffffff1614155b1561065d576040517f9e2679d500000000000000000000000000000000000000000000000000000000815260040160405180910390fd5b600073ffffffffffffffffffffffffffffffffffffffff166004600083815260200190815260200160002060000160009054906101000a900473ffffffffffffffffffffffffffffffffffffffff1673ffffffffffffffffffffffffffffffffffffffff1614156106fa576040517faaa2d6bd00000000000000000000000000000000000000000000000000000000815260040160405180910390fd5b6000600460008381526020019081526020016000206001015490506004600083815260200190815260200160002060000160009054906101000a900473ffffffffffffffffffffffffffffffffffffffff1673ffffffffffffffffffffffffffffffffffffffff166108fc829081150290604051600060405180830381858888f19350505050158015610791573d6000803e3d6000fd5b5060046000838152602001908152602001600020600080820160006101000a81549073ffffffffffffffffffffffffffffffffffffffff02191690556001820160009055600282016000905550505050565b600073ffffffffffffffffffffffffffffffffffffffff166002600083815260200190815260200160002060009054906101000a900473ffffffffffffffffffffffffffffffffffffffff1673ffffffffffffffffffffffffffffffffffffffff16141561087d576040517f3718678500000000000000000000000000000000000000000000000000000000815260040160405180910390fd5b346003600083815260200190815260200160002054146108c9576040517f8bc355fc00000000000000000000000000000000000000000000000000000000815260040160405180910390fd5b3373ffffffffffffffffffffffffffffffffffffffff166002600083815260200190815260200160002060009054906101000a900473ffffffffffffffffffffffffffffffffffffffff1673ffffffffffffffffffffffffffffffffffffffff161415610962576040517f9e2679d500000000000000000000000000000000000000000000000000000000815260040160405180910390fd5b60405180606001604052803373ffffffffffffffffffffffffffffffffffffffff168152602001348152602001428152506004600083815260200190815260200160002060008201518160000160006101000a81548173ffffffffffffffffffffffffffffffffffffffff021916908373ffffffffffffffffffffffffffffffffffffffff16021790555060208201518160010155604082015181600201559050503373ffffffffffffffffffffffffffffffffffffffff16817f2838bfde672913effa2e70e06a42bcee4d2c17d2048898d7d8502a070495201f34604051610a4b9190610f53565b60405180910390a350565b6000600154905090565b60006002600083815260200190815260200160002060009054906101000a900473ffffffffffffffffffffffffffffffffffffffff169050919050565b610aa5610f03565b600460008381526020019081526020016000206040518060600160405290816000820160009054906101000a900473ffffffffffffffffffffffffffffffffffffffff1673ffffffffffffffffffffffffffffffffffffffff1673ffffffffffffffffffffffffffffffffffffffff168152602001600182015481526020016002820154815250509050919050565b600073ffffffffffffffffffffffffffffffffffffffff166002600084815260200190815260200160002060009054906101000a900473ffffffffffffffffffffffffffffffffffffffff1673ffffffffffffffffffffffffffffffffffffffff161415610bce576040517f3718678500000000000000000000000000000000000000000000000000000000815260040160405180910390fd5b3373ffffffffffffffffffffffffffffffffffffffff166002600084815260200190815260200160002060009054906101000a900473ffffffffffffffffffffffffffffffffffffffff1673ffffffffffffffffffffffffffffffffffffffff1614610c66576040517ff5159a2200000000000000000000000000000000000000000000000000000000815260040160405180910390fd5b8073ffffffffffffffffffffffffffffffffffffffff166002600084815260200190815260200160002060009054906101000a900473ffffffffffffffffffffffffffffffffffffffff1673ffffffffffffffffffffffffffffffffffffffff161415610cff576040517f9e2679d500000000000000000000000000000000000000000000000000000000815260040160405180910390fd5b60006002600084815260200190815260200160002060009054906101000a900473ffffffffffffffffffffffffffffffffffffffff16905060006003600085815260200190815260200160002054905060008273ffffffffffffffffffffffffffffffffffffffff1682604051610d759061135d565b60006040518083038185875af1925050503d8060008114610db2576040519150601f19603f3d011682016040523d82523d6000602084013e610db7565b606091505b5050905080610dfb576040517f08c379a0000000000000000000000000000000000000000000000000000000008152600401610df2906113cf565b60405180910390fd5b836002600087815260200190815260200160002060006101000a81548173ffffffffffffffffffffffffffffffffffffffff021916908373ffffffffffffffffffffffffffffffffffffffff1602179055508373ffffffffffffffffffffffffffffffffffffffff163373ffffffffffffffffffffffffffffffffffffffff16867f16b85f49bf01212961345d3016c9a531894accf62eb7680f2045d79185cc0ec060405160405180910390a45050505050565b600060036000838152602001908152602001600020549050919050565b604051806060016040528060008152602001600073ffffffffffffffffffffffffffffffffffffffff168152602001600081525090565b6040518060600160405280600073ffffffffffffffffffffffffffffffffffffffff16815260200160008152602001600081525090565b6000819050919050565b610f4d81610f3a565b82525050565b6000602082019050610f686000830184610f44565b92915050565b600080fd5b610f7c81610f3a565b8114610f8757600080fd5b50565b600081359050610f9981610f73565b92915050565b600060208284031215610fb557610fb4610f6e565b5b6000610fc384828501610f8a565b91505092915050565b600081519050919050565b600082825260208201905092915050565b6000819050602082019050919050565b61100181610f3a565b82525050565b600073ffffffffffffffffffffffffffffffffffffffff82169050919050565b600061103282611007565b9050919050565b61104281611027565b82525050565b60608201600082015161105e6000850182610ff8565b5060208201516110716020850182611039565b5060408201516110846040850182610ff8565b50505050565b60006110968383611048565b60608301905092915050565b6000602082019050919050565b60006110ba82610fcc565b6110c48185610fd7565b93506110cf83610fe8565b8060005b838110156111005781516110e7888261108a565b97506110f2836110a2565b9250506001810190506110d3565b5085935050505092915050565b6000602082019050818103600083015261112781846110af565b905092915050565b61113881611027565b82525050565b6000602082019050611153600083018461112f565b92915050565b60608201600082015161116f6000850182611039565b5060208201516111826020850182610ff8565b5060408201516111956040850182610ff8565b50505050565b60006060820190506111b06000830184611159565b92915050565b6111bf81611027565b81146111ca57600080fd5b50565b6000813590506111dc816111b6565b92915050565b600080604083850312156111f9576111f8610f6e565b5b600061120785828601610f8a565b9250506020611218858286016111cd565b9150509250929050565b7f4e487b7100000000000000000000000000000000000000000000000000000000600052601160045260246000fd5b600061125c82610f3a565b91507fffffffffffffffffffffffffffffffffffffffffffffffffffffffffffffffff82141561128f5761128e611222565b5b600182019050919050565b60006112a582610f3a565b91506112b083610f3a565b9250828210156112c3576112c2611222565b5b828203905092915050565b7f4e487b7100000000000000000000000000000000000000000000000000000000600052604160045260246000fd5b7f4e487b7100000000000000000000000000000000000000000000000000000000600052603260045260246000fd5b600081905092915050565b50565b600061134760008361132c565b915061135282611337565b600082019050919050565b60006113688261133a565b9150819050919050565b600082825260208201905092915050565b7f5061796d656e7420746f2070726576696f7573206f776e6572206661696c6564600082015250565b60006113b9602083611372565b91506113c482611383565b602082019050919050565b600060208201905081810360008301526113e8816113ac565b905091905056fea264697066735822122046b8bcdc503986f8301615e983958197382101520b729577229b37e5152b6d1564736f6c63430008080033",
  "devdoc": {
    "kind": "dev",
    "methods": {},
    "version": 1
  },
  "userdoc": {
    "kind": "user",
    "methods": {},
    "version": 1
  },
  "storageLayout": {
    "storage": [
      {
        "astId": 13,
        "contract": "contracts/PropertyOwnership.sol:PropertyOwnership",
        "label": "contractOwner",
        "offset": 0,
        "slot": "0",
        "type": "t_address"
      },
      {
        "astId": 15,
        "contract": "contracts/PropertyOwnership.sol:PropertyOwnership",
        "label": "nextPropertyId",
        "offset": 0,
        "slot": "1",
        "type": "t_uint256"
      },
      {
        "astId": 33,
        "contract": "contracts/PropertyOwnership.sol:PropertyOwnership",
        "label": "propertyOwners",
        "offset": 0,
        "slot": "2",
        "type": "t_mapping(t_uint256,t_address)"
      },
      {
        "astId": 37,
        "contract": "contracts/PropertyOwnership.sol:PropertyOwnership",
        "label": "propertyPrices",
        "offset": 0,
        "slot": "3",
        "type": "t_mapping(t_uint256,t_uint256)"
      },
      {
        "astId": 42,
        "contract": "contracts/PropertyOwnership.sol:PropertyOwnership",
        "label": "transferRequests",
        "offset": 0,
        "slot": "4",
        "type": "t_mapping(t_uint256,t_struct(OwnershipTransferRequest)22_storage)"
      }
    ],
    "types": {
      "t_address": {
        "encoding": "inplace",
        "label": "address",
        "numberOfBytes": "20"
      },
      "t_mapping(t_uint256,t_address)": {
        "encoding": "mapping",
        "key": "t_uint256",
        "label": "mapping(uint256 => address)",
        "numberOfBytes": "32",
        "value": "t_address"
      },
      "t_mapping(t_uint256,t_struct(OwnershipTransferRequest)22_storage)": {
        "encoding": "mapping",
        "key": "t_uint256",
        "label": "mapping(uint256 => struct PropertyOwnership.OwnershipTransferRequest)",
        "numberOfBytes": "32",
        "value": "t_struct(OwnershipTransferRequest)22_storage"
      },
      "t_mapping(t_uint256,t_uint256)": {
        "encoding": "mapping",
        "key": "t_uint256",
        "label": "mapping(uint256 => uint256)",
        "numberOfBytes": "32",
        "value": "t_uint256"
      },
      "t_struct(OwnershipTransferRequest)22_storage": {
        "encoding": "inplace",
        "label": "struct PropertyOwnership.OwnershipTransferRequest",
        "members": [
          {
            "astId": 17,
            "contract": "contracts/PropertyOwnership.sol:PropertyOwnership",
            "label": "requester",
            "offset": 0,
            "slot": "0",
            "type": "t_address"
          },
          {
            "astId": 19,
            "contract": "contracts/PropertyOwnership.sol:PropertyOwnership",
            "label": "price",
            "offset": 0,
            "slot": "1",
            "type": "t_uint256"
          },
          {
            "astId": 21,
            "contract": "contracts/PropertyOwnership.sol:PropertyOwnership",
            "label": "timestamp",
            "offset": 0,
            "slot": "2",
            "type": "t_uint256"
          }
        ],
        "numberOfBytes": "96"
      },
      "t_uint256": {
        "encoding": "inplace",
        "label": "uint256",
        "numberOfBytes": "32"
      }
    }
  }
}