{
  "address": "0x5FbDB2315678afecb367f032d93F642f64180aa3",
  "abi": [
    {
      "inputs": [],
      "stateMutability": "nonpayable",
      "type": "constructor"
    },
    {
      "inputs": [],
      "name": "PropertyOwnership__InvalidOwner",
      "type": "error"
    },
    {
      "inputs": [],
      "name": "PropertyOwnership__InvalidPrice",
      "type": "error"
    },
    {
      "inputs": [],
      "name": "PropertyOwnership__InvalidPropertyId",
      "type": "error"
    },
    {
      "inputs": [],
      "name": "PropertyOwnership__NoPndingRequests",
      "type": "error"
    },
    {
      "inputs": [],
      "name": "PropertyOwnership__NotOwner",
      "type": "error"
    },
    {
      "anonymous": false,
      "inputs": [
        {
          "indexed": true,
          "internalType": "uint256",
          "name": "propertyId",
          "type": "uint256"
        },
        {
          "indexed": true,
          "internalType": "address",
          "name": "requester",
          "type": "address"
        },
        {
          "indexed": false,
          "internalType": "uint256",
          "name": "price",
          "type": "uint256"
        }
      ],
      "name": "OwnershipTransferRequested",
      "type": "event"
    },
    {
      "anonymous": false,
      "inputs": [
        {
          "indexed": true,
          "internalType": "uint256",
          "name": "propertyId",
          "type": "uint256"
        },
        {
          "indexed": true,
          "internalType": "address",
          "name": "previousOwner",
          "type": "address"
        },
        {
          "indexed": true,
          "internalType": "address",
          "name": "newOwner",
          "type": "address"
        }
      ],
      "name": "OwnershipTransferred",
      "type": "event"
    },
    {
      "anonymous": false,
      "inputs": [
        {
          "indexed": true,
          "internalType": "uint256",
          "name": "propertyId",
          "type": "uint256"
        },
        {
          "indexed": false,
          "internalType": "uint256",
          "name": "price",
          "type": "uint256"
        }
      ],
      "name": "PropertyAdded",
      "type": "event"
    },
    {
      "inputs": [
        {
          "internalType": "uint256",
          "name": "price",
          "type": "uint256"
        }
      ],
      "name": "addProperty",
      "outputs": [],
      "stateMutability": "nonpayable",
      "type": "function"
    },
    {
      "inputs": [
        {
          "internalType": "uint256",
          "name": "propertyId",
          "type": "uint256"
        },
        {
          "internalType": "address",
          "name": "newOwner",
          "type": "address"
        }
      ],
      "name": "approveOwnershipTransfer",
      "outputs": [],
      "stateMutability": "nonpayable",
      "type": "function"
    },
    {
      "inputs": [
        {
          "internalType": "uint256",
          "name": "propertyId",
          "type": "uint256"
        }
      ],
      "name": "cancelOwnershipTransfer",
      "outputs": [],
      "stateMutability": "nonpayable",
      "type": "function"
    },
    {
      "inputs": [],
      "name": "getAllProperties",
      "outputs": [
        {
          "components": [
            {
              "internalType": "uint256",
              "name": "propertyId",
              "type": "uint256"
            },
            {
              "internalType": "address",
              "name": "owner",
              "type": "address"
            },
            {
              "internalType": "uint256",
              "name": "price",
              "type": "uint256"
            }
          ],
          "internalType": "struct PropertyOwnership.PropertyDetails[]",
          "name": "",
          "type": "tuple[]"
        }
      ],
      "stateMutability": "view",
      "type": "function"
    },
    {
      "inputs": [],
      "name": "getBalance",
      "outputs": [
        {
          "internalType": "uint256",
          "name": "",
          "type": "uint256"
        }
      ],
      "stateMutability": "view",
      "type": "function"
    },
    {
      "inputs": [],
      "name": "getContractOwner",
      "outputs": [
        {
          "internalType": "address",
          "name": "",
          "type": "address"
        }
      ],
      "stateMutability": "view",
      "type": "function"
    },
    {
      "inputs": [],
      "name": "getNextPropertyId",
      "outputs": [
        {
          "internalType": "uint256",
          "name": "",
          "type": "uint256"
        }
      ],
      "stateMutability": "view",
      "type": "function"
    },
    {
      "inputs": [
        {
          "internalType": "uint256",
          "name": "propertyId",
          "type": "uint256"
        }
      ],
      "name": "getOwner",
      "outputs": [
        {
          "internalType": "address",
          "name": "",
          "type": "address"
        }
      ],
      "stateMutability": "view",
      "type": "function"
    },
    {
      "inputs": [
        {
          "internalType": "uint256",
          "name": "propertyid",
          "type": "uint256"
        }
      ],
      "name": "getPendingRequest",
      "outputs": [
        {
          "components": [
            {
              "internalType": "address",
              "name": "requester",
              "type": "address"
            },
            {
              "internalType": "uint256",
              "name": "price",
              "type": "uint256"
            },
            {
              "internalType": "uint256",
              "name": "timestamp",
              "type": "uint256"
            }
          ],
          "internalType": "struct PropertyOwnership.OwnershipTransferRequest",
          "name": "",
          "type": "tuple"
        }
      ],
      "stateMutability": "view",
      "type": "function"
    },
    {
      "inputs": [
        {
          "internalType": "uint256",
          "name": "propertyId",
          "type": "uint256"
        }
      ],
      "name": "getPrice",
      "outputs": [
        {
          "internalType": "uint256",
          "name": "",
          "type": "uint256"
        }
      ],
      "stateMutability": "view",
      "type": "function"
    },
    {
      "inputs": [
        {
          "internalType": "uint256",
          "name": "propertyId",
          "type": "uint256"
        }
      ],
      "name": "requestOwnershipTransfer",
      "outputs": [],
      "stateMutability": "payable",
      "type": "function"
    }
  ],
  "transactionHash": "0x88b69a976ec96c48bc8172e24ac787c4d6dc7c1640399c159229e825f47891b4",
  "args": [],
  "numDeployments": 1,
  "solcInputHash": "fa57f1e29c4e93b75fb4a3186e456ca0",
  "bytecode": "0x608060405234801561001057600080fd5b50336000806101000a81548173ffffffffffffffffffffffffffffffffffffffff021916908373ffffffffffffffffffffffffffffffffffffffff16021790555060018081905550611472806100676000396000f3fe60806040526004361061009c5760003560e01c806382f1d3031161006457806382f1d30314610174578063bb5095d614610190578063c41a360a146101bb578063daf484e0146101f8578063dbdeccbc14610235578063e75722301461025e5761009c565b806312065fe0146100a1578063267982e8146100cc5780633d51402c146100f5578063442890d5146101205780636b3c6c981461014b575b600080fd5b3480156100ad57600080fd5b506100b661029b565b6040516100c39190610fa0565b60405180910390f35b3480156100d857600080fd5b506100f360048036038101906100ee9190610fec565b6102a3565b005b34801561010157600080fd5b5061010a61040b565b604051610117919061115a565b60405180910390f35b34801561012c57600080fd5b5061013561053f565b604051610142919061118b565b60405180910390f35b34801561015757600080fd5b50610172600480360381019061016d9190610fec565b610568565b005b61018e60048036038101906101899190610fec565b6107e3565b005b34801561019c57600080fd5b506101a5610a56565b6040516101b29190610fa0565b60405180910390f35b3480156101c757600080fd5b506101e260048036038101906101dd9190610fec565b610a60565b6040516101ef919061118b565b60405180910390f35b34801561020457600080fd5b5061021f600480360381019061021a9190610fec565b610a9d565b60405161022c91906111e8565b60405180910390f35b34801561024157600080fd5b5061025c6004803603810190610257919061122f565b610b34565b005b34801561026a57600080fd5b5061028560048036038101906102809190610fec565b610efc565b6040516102929190610fa0565b60405180910390f35b600047905090565b60008054906101000a900473ffffffffffffffffffffffffffffffffffffffff1673ffffffffffffffffffffffffffffffffffffffff163373ffffffffffffffffffffffffffffffffffffffff1614610328576040517ff5159a2200000000000000000000000000000000000000000000000000000000815260040160405180910390fd5b60008054906101000a900473ffffffffffffffffffffffffffffffffffffffff1660026000600154815260200190815260200160002060006101000a81548173ffffffffffffffffffffffffffffffffffffffff021916908373ffffffffffffffffffffffffffffffffffffffff16021790555080600360006001548152602001908152602001600020819055506001547f8c12dc081f3afb7b8cf4b4eafe341721d78a8ab3e76d8e5adcaccd8ecefb3af3826040516103e89190610fa0565b60405180910390a2600160008154809291906104039061129e565b919050555050565b606060006001805461041d91906112e7565b67ffffffffffffffff8111156104365761043561131b565b5b60405190808252806020026020018201604052801561046f57816020015b61045c610f19565b8152602001906001900390816104545790505b5090506000600190505b6001548110156105375760405180606001604052808281526020016002600084815260200190815260200160002060009054906101000a900473ffffffffffffffffffffffffffffffffffffffff1673ffffffffffffffffffffffffffffffffffffffff16815260200160036000848152602001908152602001600020548152508260018361050891906112e7565b815181106105195761051861134a565b5b6020026020010181905250808061052f9061129e565b915050610479565b508091505090565b60008060009054906101000a900473ffffffffffffffffffffffffffffffffffffffff16905090565b60008054906101000a900473ffffffffffffffffffffffffffffffffffffffff1673ffffffffffffffffffffffffffffffffffffffff163373ffffffffffffffffffffffffffffffffffffffff161415801561062657506004600082815260200190815260200160002060000160009054906101000a900473ffffffffffffffffffffffffffffffffffffffff1673ffffffffffffffffffffffffffffffffffffffff163373ffffffffffffffffffffffffffffffffffffffff1614155b1561065d576040517f9e2679d500000000000000000000000000000000000000000000000000000000815260040160405180910390fd5b600073ffffffffffffffffffffffffffffffffffffffff166004600083815260200190815260200160002060000160009054906101000a900473ffffffffffffffffffffffffffffffffffffffff1673ffffffffffffffffffffffffffffffffffffffff1614156106fa576040517faaa2d6bd00000000000000000000000000000000000000000000000000000000815260040160405180910390fd5b6000600460008381526020019081526020016000206001015490506004600083815260200190815260200160002060000160009054906101000a900473ffffffffffffffffffffffffffffffffffffffff1673ffffffffffffffffffffffffffffffffffffffff166108fc829081150290604051600060405180830381858888f19350505050158015610791573d6000803e3d6000fd5b5060046000838152602001908152602001600020600080820160006101000a81549073ffffffffffffffffffffffffffffffffffffffff02191690556001820160009055600282016000905550505050565b600073ffffffffffffffffffffffffffffffffffffffff166002600083815260200190815260200160002060009054906101000a900473ffffffffffffffffffffffffffffffffffffffff1673ffffffffffffffffffffffffffffffffffffffff16141561087d576040517f3718678500000000000000000000000000000000000000000000000000000000815260040160405180910390fd5b346003600083815260200190815260200160002054146108c9576040517f8bc355fc00000000000000000000000000000000000000000000000000000000815260040160405180910390fd5b3373ffffffffffffffffffffffffffffffffffffffff166002600083815260200190815260200160002060009054906101000a900473ffffffffffffffffffffffffffffffffffffffff1673ffffffffffffffffffffffffffffffffffffffff161415610962576040517f9e2679d500000000000000000000000000000000000000000000000000000000815260040160405180910390fd5b60405180606001604052803373ffffffffffffffffffffffffffffffffffffffff168152602001348152602001428152506004600083815260200190815260200160002060008201518160000160006101000a81548173ffffffffffffffffffffffffffffffffffffffff021916908373ffffffffffffffffffffffffffffffffffffffff16021790555060208201518160010155604082015181600201559050503373ffffffffffffffffffffffffffffffffffffffff16817f2838bfde672913effa2e70e06a42bcee4d2c17d2048898d7d8502a070495201f34604051610a4b9190610fa0565b60405180910390a350565b6000600154905090565b60006002600083815260200190815260200160002060009054906101000a900473ffffffffffffffffffffffffffffffffffffffff169050919050565b610aa5610f50565b600460008381526020019081526020016000206040518060600160405290816000820160009054906101000a900473ffffffffffffffffffffffffffffffffffffffff1673ffffffffffffffffffffffffffffffffffffffff1673ffffffffffffffffffffffffffffffffffffffff168152602001600182015481526020016002820154815250509050919050565b600073ffffffffffffffffffffffffffffffffffffffff166002600084815260200190815260200160002060009054906101000a900473ffffffffffffffffffffffffffffffffffffffff1673ffffffffffffffffffffffffffffffffffffffff161415610bce576040517f3718678500000000000000000000000000000000000000000000000000000000815260040160405180910390fd5b3373ffffffffffffffffffffffffffffffffffffffff166002600084815260200190815260200160002060009054906101000a900473ffffffffffffffffffffffffffffffffffffffff1673ffffffffffffffffffffffffffffffffffffffff1614610c66576040517ff5159a2200000000000000000000000000000000000000000000000000000000815260040160405180910390fd5b8073ffffffffffffffffffffffffffffffffffffffff166002600084815260200190815260200160002060009054906101000a900473ffffffffffffffffffffffffffffffffffffffff1673ffffffffffffffffffffffffffffffffffffffff161415610cff576040517f9e2679d500000000000000000000000000000000000000000000000000000000815260040160405180910390fd5b60006002600084815260200190815260200160002060009054906101000a900473ffffffffffffffffffffffffffffffffffffffff16905060006003600085815260200190815260200160002054905060008273ffffffffffffffffffffffffffffffffffffffff1682604051610d75906113aa565b60006040518083038185875af1925050503d8060008114610db2576040519150601f19603f3d011682016040523d82523d6000602084013e610db7565b606091505b5050905080610dfb576040517f08c379a0000000000000000000000000000000000000000000000000000000008152600401610df29061141c565b60405180910390fd5b836002600087815260200190815260200160002060006101000a81548173ffffffffffffffffffffffffffffffffffffffff021916908373ffffffffffffffffffffffffffffffffffffffff16021790555060046000868152602001908152602001600020600080820160006101000a81549073ffffffffffffffffffffffffffffffffffffffff02191690556001820160009055600282016000905550508373ffffffffffffffffffffffffffffffffffffffff163373ffffffffffffffffffffffffffffffffffffffff16867f16b85f49bf01212961345d3016c9a531894accf62eb7680f2045d79185cc0ec060405160405180910390a45050505050565b600060036000838152602001908152602001600020549050919050565b604051806060016040528060008152602001600073ffffffffffffffffffffffffffffffffffffffff168152602001600081525090565b6040518060600160405280600073ffffffffffffffffffffffffffffffffffffffff16815260200160008152602001600081525090565b6000819050919050565b610f9a81610f87565b82525050565b6000602082019050610fb56000830184610f91565b92915050565b600080fd5b610fc981610f87565b8114610fd457600080fd5b50565b600081359050610fe681610fc0565b92915050565b60006020828403121561100257611001610fbb565b5b600061101084828501610fd7565b91505092915050565b600081519050919050565b600082825260208201905092915050565b6000819050602082019050919050565b61104e81610f87565b82525050565b600073ffffffffffffffffffffffffffffffffffffffff82169050919050565b600061107f82611054565b9050919050565b61108f81611074565b82525050565b6060820160008201516110ab6000850182611045565b5060208201516110be6020850182611086565b5060408201516110d16040850182611045565b50505050565b60006110e38383611095565b60608301905092915050565b6000602082019050919050565b600061110782611019565b6111118185611024565b935061111c83611035565b8060005b8381101561114d57815161113488826110d7565b975061113f836110ef565b925050600181019050611120565b5085935050505092915050565b6000602082019050818103600083015261117481846110fc565b905092915050565b61118581611074565b82525050565b60006020820190506111a0600083018461117c565b92915050565b6060820160008201516111bc6000850182611086565b5060208201516111cf6020850182611045565b5060408201516111e26040850182611045565b50505050565b60006060820190506111fd60008301846111a6565b92915050565b61120c81611074565b811461121757600080fd5b50565b60008135905061122981611203565b92915050565b6000806040838503121561124657611245610fbb565b5b600061125485828601610fd7565b92505060206112658582860161121a565b9150509250929050565b7f4e487b7100000000000000000000000000000000000000000000000000000000600052601160045260246000fd5b60006112a982610f87565b91507fffffffffffffffffffffffffffffffffffffffffffffffffffffffffffffffff8214156112dc576112db61126f565b5b600182019050919050565b60006112f282610f87565b91506112fd83610f87565b9250828210156113105761130f61126f565b5b828203905092915050565b7f4e487b7100000000000000000000000000000000000000000000000000000000600052604160045260246000fd5b7f4e487b7100000000000000000000000000000000000000000000000000000000600052603260045260246000fd5b600081905092915050565b50565b6000611394600083611379565b915061139f82611384565b600082019050919050565b60006113b582611387565b9150819050919050565b600082825260208201905092915050565b7f5061796d656e7420746f2070726576696f7573206f776e6572206661696c6564600082015250565b60006114066020836113bf565b9150611411826113d0565b602082019050919050565b60006020820190508181036000830152611435816113f9565b905091905056fea26469706673582212209ce6da2afb9744f3963e202066b9488c3b5a6895b681963541d643ad85f1f18964736f6c63430008080033",
  "devdoc": {
    "kind": "dev",
    "methods": {},
    "version": 1
  },
  "userdoc": {
    "kind": "user",
    "methods": {},
    "version": 1
  },
  "storageLayout": {
    "storage": [
      {
        "astId": 13,
        "contract": "contracts/PropertyOwnership.sol:PropertyOwnership",
        "label": "contractOwner",
        "offset": 0,
        "slot": "0",
        "type": "t_address"
      },
      {
        "astId": 15,
        "contract": "contracts/PropertyOwnership.sol:PropertyOwnership",
        "label": "nextPropertyId",
        "offset": 0,
        "slot": "1",
        "type": "t_uint256"
      },
      {
        "astId": 33,
        "contract": "contracts/PropertyOwnership.sol:PropertyOwnership",
        "label": "propertyOwners",
        "offset": 0,
        "slot": "2",
        "type": "t_mapping(t_uint256,t_address)"
      },
      {
        "astId": 37,
        "contract": "contracts/PropertyOwnership.sol:PropertyOwnership",
        "label": "propertyPrices",
        "offset": 0,
        "slot": "3",
        "type": "t_mapping(t_uint256,t_uint256)"
      },
      {
        "astId": 42,
        "contract": "contracts/PropertyOwnership.sol:PropertyOwnership",
        "label": "transferRequests",
        "offset": 0,
        "slot": "4",
        "type": "t_mapping(t_uint256,t_struct(OwnershipTransferRequest)22_storage)"
      }
    ],
    "types": {
      "t_address": {
        "encoding": "inplace",
        "label": "address",
        "numberOfBytes": "20"
      },
      "t_mapping(t_uint256,t_address)": {
        "encoding": "mapping",
        "key": "t_uint256",
        "label": "mapping(uint256 => address)",
        "numberOfBytes": "32",
        "value": "t_address"
      },
      "t_mapping(t_uint256,t_struct(OwnershipTransferRequest)22_storage)": {
        "encoding": "mapping",
        "key": "t_uint256",
        "label": "mapping(uint256 => struct PropertyOwnership.OwnershipTransferRequest)",
        "numberOfBytes": "32",
        "value": "t_struct(OwnershipTransferRequest)22_storage"
      },
      "t_mapping(t_uint256,t_uint256)": {
        "encoding": "mapping",
        "key": "t_uint256",
        "label": "mapping(uint256 => uint256)",
        "numberOfBytes": "32",
        "value": "t_uint256"
      },
      "t_struct(OwnershipTransferRequest)22_storage": {
        "encoding": "inplace",
        "label": "struct PropertyOwnership.OwnershipTransferRequest",
        "members": [
          {
            "astId": 17,
            "contract": "contracts/PropertyOwnership.sol:PropertyOwnership",
            "label": "requester",
            "offset": 0,
            "slot": "0",
            "type": "t_address"
          },
          {
            "astId": 19,
            "contract": "contracts/PropertyOwnership.sol:PropertyOwnership",
            "label": "price",
            "offset": 0,
            "slot": "1",
            "type": "t_uint256"
          },
          {
            "astId": 21,
            "contract": "contracts/PropertyOwnership.sol:PropertyOwnership",
            "label": "timestamp",
            "offset": 0,
            "slot": "2",
            "type": "t_uint256"
          }
        ],
        "numberOfBytes": "96"
      },
      "t_uint256": {
        "encoding": "inplace",
        "label": "uint256",
        "numberOfBytes": "32"
      }
    }
  }
}