{
  "address": "0x5FbDB2315678afecb367f032d93F642f64180aa3",
  "abi": [
    {
      "inputs": [],
      "stateMutability": "nonpayable",
      "type": "constructor"
    },
    {
      "anonymous": false,
      "inputs": [
        {
          "indexed": true,
          "internalType": "uint256",
          "name": "propertyId",
          "type": "uint256"
        },
        {
          "indexed": true,
          "internalType": "address",
          "name": "requester",
          "type": "address"
        },
        {
          "indexed": false,
          "internalType": "uint256",
          "name": "price",
          "type": "uint256"
        }
      ],
      "name": "OwnershipTransferRequested",
      "type": "event"
    },
    {
      "anonymous": false,
      "inputs": [
        {
          "indexed": true,
          "internalType": "uint256",
          "name": "propertyId",
          "type": "uint256"
        },
        {
          "indexed": true,
          "internalType": "address",
          "name": "previousOwner",
          "type": "address"
        },
        {
          "indexed": true,
          "internalType": "address",
          "name": "newOwner",
          "type": "address"
        }
      ],
      "name": "OwnershipTransferred",
      "type": "event"
    },
    {
      "anonymous": false,
      "inputs": [
        {
          "indexed": true,
          "internalType": "uint256",
          "name": "propertyId",
          "type": "uint256"
        },
        {
          "indexed": false,
          "internalType": "uint256",
          "name": "price",
          "type": "uint256"
        }
      ],
      "name": "PropertyAdded",
      "type": "event"
    },
    {
      "inputs": [
        {
          "internalType": "uint256",
          "name": "price",
          "type": "uint256"
        }
      ],
      "name": "addProperty",
      "outputs": [],
      "stateMutability": "nonpayable",
      "type": "function"
    },
    {
      "inputs": [
        {
          "internalType": "uint256",
          "name": "propertyId",
          "type": "uint256"
        },
        {
          "internalType": "address",
          "name": "newOwner",
          "type": "address"
        }
      ],
      "name": "approveOwnershipTransfer",
      "outputs": [],
      "stateMutability": "nonpayable",
      "type": "function"
    },
    {
      "inputs": [
        {
          "internalType": "uint256",
          "name": "propertyId",
          "type": "uint256"
        }
      ],
      "name": "getOwner",
      "outputs": [
        {
          "internalType": "address",
          "name": "",
          "type": "address"
        }
      ],
      "stateMutability": "view",
      "type": "function"
    },
    {
      "inputs": [
        {
          "internalType": "uint256",
          "name": "propertyId",
          "type": "uint256"
        }
      ],
      "name": "getPrice",
      "outputs": [
        {
          "internalType": "uint256",
          "name": "",
          "type": "uint256"
        }
      ],
      "stateMutability": "view",
      "type": "function"
    },
    {
      "inputs": [
        {
          "internalType": "uint256",
          "name": "propertyId",
          "type": "uint256"
        },
        {
          "internalType": "uint256",
          "name": "price",
          "type": "uint256"
        }
      ],
      "name": "requestOwnershipTransfer",
      "outputs": [],
      "stateMutability": "payable",
      "type": "function"
    }
  ],
  "transactionHash": "0xbac41264467ba92700e0bea96a2b6da444a6139d14dc98aef468b4a710381c4e",
  "args": [],
  "numDeployments": 1,
  "solcInputHash": "b44ec1b95a0c3abc4400e818718ada68",
  "bytecode": "0x608060405234801561001057600080fd5b50336000806101000a81548173ffffffffffffffffffffffffffffffffffffffff021916908373ffffffffffffffffffffffffffffffffffffffff16021790555060018081905550610cf1806100676000396000f3fe60806040526004361061004a5760003560e01c8063267982e81461004f5780633e9a492314610078578063c41a360a14610094578063dbdeccbc146100d1578063e7572230146100fa575b600080fd5b34801561005b57600080fd5b50610076600480360381019061007191906107d9565b610137565b005b610092600480360381019061008d9190610806565b6102a8565b005b3480156100a057600080fd5b506100bb60048036038101906100b691906107d9565b6104d7565b6040516100c89190610887565b60405180910390f35b3480156100dd57600080fd5b506100f860048036038101906100f391906108ce565b610514565b005b34801561010657600080fd5b50610121600480360381019061011c91906107d9565b610781565b60405161012e919061091d565b60405180910390f35b60008054906101000a900473ffffffffffffffffffffffffffffffffffffffff1673ffffffffffffffffffffffffffffffffffffffff163373ffffffffffffffffffffffffffffffffffffffff16146101c5576040517f08c379a00000000000000000000000000000000000000000000000000000000081526004016101bc906109bb565b60405180910390fd5b60008054906101000a900473ffffffffffffffffffffffffffffffffffffffff1660026000600154815260200190815260200160002060006101000a81548173ffffffffffffffffffffffffffffffffffffffff021916908373ffffffffffffffffffffffffffffffffffffffff16021790555080600360006001548152602001908152602001600020819055506001547f8c12dc081f3afb7b8cf4b4eafe341721d78a8ab3e76d8e5adcaccd8ecefb3af382604051610285919061091d565b60405180910390a2600160008154809291906102a090610a0a565b919050555050565b600073ffffffffffffffffffffffffffffffffffffffff166002600084815260200190815260200160002060009054906101000a900473ffffffffffffffffffffffffffffffffffffffff1673ffffffffffffffffffffffffffffffffffffffff16141561034b576040517f08c379a000000000000000000000000000000000000000000000000000000000815260040161034290610a9f565b60405180910390fd5b3373ffffffffffffffffffffffffffffffffffffffff166002600084815260200190815260200160002060009054906101000a900473ffffffffffffffffffffffffffffffffffffffff1673ffffffffffffffffffffffffffffffffffffffff1614156103ed576040517f08c379a00000000000000000000000000000000000000000000000000000000081526004016103e490610b0b565b60405180910390fd5b80600360008481526020019081526020016000205414610442576040517f08c379a000000000000000000000000000000000000000000000000000000000815260040161043990610b77565b60405180910390fd5b803414610484576040517f08c379a000000000000000000000000000000000000000000000000000000000815260040161047b90610c09565b60405180910390fd5b3373ffffffffffffffffffffffffffffffffffffffff16827f2838bfde672913effa2e70e06a42bcee4d2c17d2048898d7d8502a070495201f836040516104cb919061091d565b60405180910390a35050565b60006002600083815260200190815260200160002060009054906101000a900473ffffffffffffffffffffffffffffffffffffffff169050919050565b3373ffffffffffffffffffffffffffffffffffffffff166002600084815260200190815260200160002060009054906101000a900473ffffffffffffffffffffffffffffffffffffffff1673ffffffffffffffffffffffffffffffffffffffff16146105b5576040517f08c379a00000000000000000000000000000000000000000000000000000000081526004016105ac90610c9b565b60405180910390fd5b8073ffffffffffffffffffffffffffffffffffffffff166002600084815260200190815260200160002060009054906101000a900473ffffffffffffffffffffffffffffffffffffffff1673ffffffffffffffffffffffffffffffffffffffff161415610657576040517f08c379a000000000000000000000000000000000000000000000000000000000815260040161064e90610b0b565b60405180910390fd5b806002600084815260200190815260200160002060006101000a81548173ffffffffffffffffffffffffffffffffffffffff021916908373ffffffffffffffffffffffffffffffffffffffff160217905550600060036000848152602001908152602001600020549050600060036000858152602001908152602001600020819055503373ffffffffffffffffffffffffffffffffffffffff166108fc829081150290604051600060405180830381858888f19350505050158015610720573d6000803e3d6000fd5b508173ffffffffffffffffffffffffffffffffffffffff163373ffffffffffffffffffffffffffffffffffffffff16847f16b85f49bf01212961345d3016c9a531894accf62eb7680f2045d79185cc0ec060405160405180910390a4505050565b600060036000838152602001908152602001600020549050919050565b600080fd5b6000819050919050565b6107b6816107a3565b81146107c157600080fd5b50565b6000813590506107d3816107ad565b92915050565b6000602082840312156107ef576107ee61079e565b5b60006107fd848285016107c4565b91505092915050565b6000806040838503121561081d5761081c61079e565b5b600061082b858286016107c4565b925050602061083c858286016107c4565b9150509250929050565b600073ffffffffffffffffffffffffffffffffffffffff82169050919050565b600061087182610846565b9050919050565b61088181610866565b82525050565b600060208201905061089c6000830184610878565b92915050565b6108ab81610866565b81146108b657600080fd5b50565b6000813590506108c8816108a2565b92915050565b600080604083850312156108e5576108e461079e565b5b60006108f3858286016107c4565b9250506020610904858286016108b9565b9150509250929050565b610917816107a3565b82525050565b6000602082019050610932600083018461090e565b92915050565b600082825260208201905092915050565b7f4f6e6c792074686520636f6e7472616374206f776e65722063616e207065726660008201527f6f726d207468697320616374696f6e0000000000000000000000000000000000602082015250565b60006109a5602f83610938565b91506109b082610949565b604082019050919050565b600060208201905081810360008301526109d481610998565b9050919050565b7f4e487b7100000000000000000000000000000000000000000000000000000000600052601160045260246000fd5b6000610a15826107a3565b91507fffffffffffffffffffffffffffffffffffffffffffffffffffffffffffffffff821415610a4857610a476109db565b5b600182019050919050565b7f496e76616c69642070726f706572747949640000000000000000000000000000600082015250565b6000610a89601283610938565b9150610a9482610a53565b602082019050919050565b60006020820190508181036000830152610ab881610a7c565b9050919050565b7f596f752061726520616c726561647920746865206f776e657200000000000000600082015250565b6000610af5601983610938565b9150610b0082610abf565b602082019050919050565b60006020820190508181036000830152610b2481610ae8565b9050919050565b7f496e76616c696420707269636500000000000000000000000000000000000000600082015250565b6000610b61600d83610938565b9150610b6c82610b2b565b602082019050919050565b60006020820190508181036000830152610b9081610b54565b9050919050565b7f506c656173652073656e642074686520636f727265637420616d6f756e74206f60008201527f6620457468657200000000000000000000000000000000000000000000000000602082015250565b6000610bf3602783610938565b9150610bfe82610b97565b604082019050919050565b60006020820190508181036000830152610c2281610be6565b9050919050565b7f4f6e6c79207468652063757272656e74206f776e65722063616e20617070726f60008201527f766520746865207472616e736665720000000000000000000000000000000000602082015250565b6000610c85602f83610938565b9150610c9082610c29565b604082019050919050565b60006020820190508181036000830152610cb481610c78565b905091905056fea2646970667358221220ecc35774e958c89d7096c32037a70c720b68e2ab95d767b2054a3430299672e264736f6c63430008080033",
  "devdoc": {
    "kind": "dev",
    "methods": {},
    "version": 1
  },
  "userdoc": {
    "kind": "user",
    "methods": {},
    "version": 1
  },
  "storageLayout": {
    "storage": [
      {
        "astId": 3,
        "contract": "contracts/PropertyOwnership.sol:PropertyOwnership",
        "label": "contractOwner",
        "offset": 0,
        "slot": "0",
        "type": "t_address"
      },
      {
        "astId": 5,
        "contract": "contracts/PropertyOwnership.sol:PropertyOwnership",
        "label": "nextPropertyId",
        "offset": 0,
        "slot": "1",
        "type": "t_uint256"
      },
      {
        "astId": 9,
        "contract": "contracts/PropertyOwnership.sol:PropertyOwnership",
        "label": "propertyOwners",
        "offset": 0,
        "slot": "2",
        "type": "t_mapping(t_uint256,t_address)"
      },
      {
        "astId": 13,
        "contract": "contracts/PropertyOwnership.sol:PropertyOwnership",
        "label": "propertyPrices",
        "offset": 0,
        "slot": "3",
        "type": "t_mapping(t_uint256,t_uint256)"
      }
    ],
    "types": {
      "t_address": {
        "encoding": "inplace",
        "label": "address",
        "numberOfBytes": "20"
      },
      "t_mapping(t_uint256,t_address)": {
        "encoding": "mapping",
        "key": "t_uint256",
        "label": "mapping(uint256 => address)",
        "numberOfBytes": "32",
        "value": "t_address"
      },
      "t_mapping(t_uint256,t_uint256)": {
        "encoding": "mapping",
        "key": "t_uint256",
        "label": "mapping(uint256 => uint256)",
        "numberOfBytes": "32",
        "value": "t_uint256"
      },
      "t_uint256": {
        "encoding": "inplace",
        "label": "uint256",
        "numberOfBytes": "32"
      }
    }
  }
}