{
  "address": "0x7b51Ab34A248185cFBac5089Df080b8936483691",
  "abi": [
    {
      "inputs": [],
      "stateMutability": "nonpayable",
      "type": "constructor"
    },
    {
      "inputs": [],
      "name": "PropertyOwnership__InvalidOwner",
      "type": "error"
    },
    {
      "inputs": [],
      "name": "PropertyOwnership__InvalidPrice",
      "type": "error"
    },
    {
      "inputs": [],
      "name": "PropertyOwnership__InvalidPropertyId",
      "type": "error"
    },
    {
      "inputs": [],
      "name": "PropertyOwnership__NotOwner",
      "type": "error"
    },
    {
      "anonymous": false,
      "inputs": [
        {
          "indexed": true,
          "internalType": "uint256",
          "name": "propertyId",
          "type": "uint256"
        },
        {
          "indexed": true,
          "internalType": "address",
          "name": "requester",
          "type": "address"
        },
        {
          "indexed": false,
          "internalType": "uint256",
          "name": "price",
          "type": "uint256"
        }
      ],
      "name": "OwnershipTransferRequested",
      "type": "event"
    },
    {
      "anonymous": false,
      "inputs": [
        {
          "indexed": true,
          "internalType": "uint256",
          "name": "propertyId",
          "type": "uint256"
        },
        {
          "indexed": true,
          "internalType": "address",
          "name": "previousOwner",
          "type": "address"
        },
        {
          "indexed": true,
          "internalType": "address",
          "name": "newOwner",
          "type": "address"
        }
      ],
      "name": "OwnershipTransferred",
      "type": "event"
    },
    {
      "anonymous": false,
      "inputs": [
        {
          "indexed": true,
          "internalType": "uint256",
          "name": "propertyId",
          "type": "uint256"
        },
        {
          "indexed": false,
          "internalType": "uint256",
          "name": "price",
          "type": "uint256"
        }
      ],
      "name": "PropertyAdded",
      "type": "event"
    },
    {
      "inputs": [
        {
          "internalType": "uint256",
          "name": "price",
          "type": "uint256"
        }
      ],
      "name": "addProperty",
      "outputs": [],
      "stateMutability": "nonpayable",
      "type": "function"
    },
    {
      "inputs": [
        {
          "internalType": "uint256",
          "name": "propertyId",
          "type": "uint256"
        },
        {
          "internalType": "address",
          "name": "newOwner",
          "type": "address"
        }
      ],
      "name": "approveOwnershipTransfer",
      "outputs": [],
      "stateMutability": "nonpayable",
      "type": "function"
    },
    {
      "inputs": [],
      "name": "getContractOwner",
      "outputs": [
        {
          "internalType": "address",
          "name": "",
          "type": "address"
        }
      ],
      "stateMutability": "view",
      "type": "function"
    },
    {
      "inputs": [],
      "name": "getNextPropertyId",
      "outputs": [
        {
          "internalType": "uint256",
          "name": "",
          "type": "uint256"
        }
      ],
      "stateMutability": "view",
      "type": "function"
    },
    {
      "inputs": [
        {
          "internalType": "uint256",
          "name": "propertyId",
          "type": "uint256"
        }
      ],
      "name": "getOwner",
      "outputs": [
        {
          "internalType": "address",
          "name": "",
          "type": "address"
        }
      ],
      "stateMutability": "view",
      "type": "function"
    },
    {
      "inputs": [
        {
          "internalType": "uint256",
          "name": "propertyId",
          "type": "uint256"
        }
      ],
      "name": "getPrice",
      "outputs": [
        {
          "internalType": "uint256",
          "name": "",
          "type": "uint256"
        }
      ],
      "stateMutability": "view",
      "type": "function"
    },
    {
      "inputs": [
        {
          "internalType": "uint256",
          "name": "propertyId",
          "type": "uint256"
        },
        {
          "internalType": "uint256",
          "name": "price",
          "type": "uint256"
        }
      ],
      "name": "requestOwnershipTransfer",
      "outputs": [],
      "stateMutability": "payable",
      "type": "function"
    }
  ],
  "transactionHash": "0x4dd2cbb78dd0412c0c24ddf9daaa7bb0a0b2b6c9b76043e37b10cfcb06024777",
  "args": [],
  "numDeployments": 2,
  "solcInputHash": "1611fa3741f8612d82795908f4d249b8",
  "bytecode": "0x608060405234801561001057600080fd5b50336000806101000a81548173ffffffffffffffffffffffffffffffffffffffff021916908373ffffffffffffffffffffffffffffffffffffffff160217905550600180819055506109a4806100676000396000f3fe6080604052600436106100705760003560e01c8063bb5095d61161004e578063bb5095d6146100e5578063c41a360a14610110578063dbdeccbc1461014d578063e75722301461017657610070565b8063267982e8146100755780633e9a49231461009e578063442890d5146100ba575b600080fd5b34801561008157600080fd5b5061009c60048036038101906100979190610797565b6101b3565b005b6100b860048036038101906100b391906107c4565b61031b565b005b3480156100c657600080fd5b506100cf6104ed565b6040516100dc9190610845565b60405180910390f35b3480156100f157600080fd5b506100fa610516565b604051610107919061086f565b60405180910390f35b34801561011c57600080fd5b5061013760048036038101906101329190610797565b610520565b6040516101449190610845565b60405180910390f35b34801561015957600080fd5b50610174600480360381019061016f91906108b6565b61055d565b005b34801561018257600080fd5b5061019d60048036038101906101989190610797565b61073f565b6040516101aa919061086f565b60405180910390f35b60008054906101000a900473ffffffffffffffffffffffffffffffffffffffff1673ffffffffffffffffffffffffffffffffffffffff163373ffffffffffffffffffffffffffffffffffffffff1614610238576040517ff5159a2200000000000000000000000000000000000000000000000000000000815260040160405180910390fd5b60008054906101000a900473ffffffffffffffffffffffffffffffffffffffff1660026000600154815260200190815260200160002060006101000a81548173ffffffffffffffffffffffffffffffffffffffff021916908373ffffffffffffffffffffffffffffffffffffffff16021790555080600360006001548152602001908152602001600020819055506001547f8c12dc081f3afb7b8cf4b4eafe341721d78a8ab3e76d8e5adcaccd8ecefb3af3826040516102f8919061086f565b60405180910390a26001600081548092919061031390610925565b919050555050565b600073ffffffffffffffffffffffffffffffffffffffff166002600084815260200190815260200160002060009054906101000a900473ffffffffffffffffffffffffffffffffffffffff1673ffffffffffffffffffffffffffffffffffffffff1614156103b5576040517f3718678500000000000000000000000000000000000000000000000000000000815260040160405180910390fd5b80600360008481526020019081526020016000205414610401576040517f8bc355fc00000000000000000000000000000000000000000000000000000000815260040160405180910390fd5b3373ffffffffffffffffffffffffffffffffffffffff166002600084815260200190815260200160002060009054906101000a900473ffffffffffffffffffffffffffffffffffffffff1673ffffffffffffffffffffffffffffffffffffffff16141561049a576040517f9e2679d500000000000000000000000000000000000000000000000000000000815260040160405180910390fd5b3373ffffffffffffffffffffffffffffffffffffffff16827f2838bfde672913effa2e70e06a42bcee4d2c17d2048898d7d8502a070495201f836040516104e1919061086f565b60405180910390a35050565b60008060009054906101000a900473ffffffffffffffffffffffffffffffffffffffff16905090565b6000600154905090565b60006002600083815260200190815260200160002060009054906101000a900473ffffffffffffffffffffffffffffffffffffffff169050919050565b3373ffffffffffffffffffffffffffffffffffffffff166002600084815260200190815260200160002060009054906101000a900473ffffffffffffffffffffffffffffffffffffffff1673ffffffffffffffffffffffffffffffffffffffff16146105f5576040517ff5159a2200000000000000000000000000000000000000000000000000000000815260040160405180910390fd5b8073ffffffffffffffffffffffffffffffffffffffff166002600084815260200190815260200160002060009054906101000a900473ffffffffffffffffffffffffffffffffffffffff1673ffffffffffffffffffffffffffffffffffffffff16141561068e576040517f9e2679d500000000000000000000000000000000000000000000000000000000815260040160405180910390fd5b806002600084815260200190815260200160002060006101000a81548173ffffffffffffffffffffffffffffffffffffffff021916908373ffffffffffffffffffffffffffffffffffffffff1602179055508073ffffffffffffffffffffffffffffffffffffffff163373ffffffffffffffffffffffffffffffffffffffff16837f16b85f49bf01212961345d3016c9a531894accf62eb7680f2045d79185cc0ec060405160405180910390a45050565b600060036000838152602001908152602001600020549050919050565b600080fd5b6000819050919050565b61077481610761565b811461077f57600080fd5b50565b6000813590506107918161076b565b92915050565b6000602082840312156107ad576107ac61075c565b5b60006107bb84828501610782565b91505092915050565b600080604083850312156107db576107da61075c565b5b60006107e985828601610782565b92505060206107fa85828601610782565b9150509250929050565b600073ffffffffffffffffffffffffffffffffffffffff82169050919050565b600061082f82610804565b9050919050565b61083f81610824565b82525050565b600060208201905061085a6000830184610836565b92915050565b61086981610761565b82525050565b60006020820190506108846000830184610860565b92915050565b61089381610824565b811461089e57600080fd5b50565b6000813590506108b08161088a565b92915050565b600080604083850312156108cd576108cc61075c565b5b60006108db85828601610782565b92505060206108ec858286016108a1565b9150509250929050565b7f4e487b7100000000000000000000000000000000000000000000000000000000600052601160045260246000fd5b600061093082610761565b91507fffffffffffffffffffffffffffffffffffffffffffffffffffffffffffffffff821415610963576109626108f6565b5b60018201905091905056fea2646970667358221220e057814e8595f3c4e33343bf850e619203f8f91f22b615be12f1b793e60cfc7464736f6c63430008080033",
  "devdoc": {
    "kind": "dev",
    "methods": {},
    "version": 1
  },
  "userdoc": {
    "kind": "user",
    "methods": {},
    "version": 1
  },
  "storageLayout": {
    "storage": [
      {
        "astId": 11,
        "contract": "contracts/PropertyOwnership.sol:PropertyOwnership",
        "label": "contractOwner",
        "offset": 0,
        "slot": "0",
        "type": "t_address"
      },
      {
        "astId": 13,
        "contract": "contracts/PropertyOwnership.sol:PropertyOwnership",
        "label": "nextPropertyId",
        "offset": 0,
        "slot": "1",
        "type": "t_uint256"
      },
      {
        "astId": 17,
        "contract": "contracts/PropertyOwnership.sol:PropertyOwnership",
        "label": "propertyOwners",
        "offset": 0,
        "slot": "2",
        "type": "t_mapping(t_uint256,t_address)"
      },
      {
        "astId": 21,
        "contract": "contracts/PropertyOwnership.sol:PropertyOwnership",
        "label": "propertyPrices",
        "offset": 0,
        "slot": "3",
        "type": "t_mapping(t_uint256,t_uint256)"
      }
    ],
    "types": {
      "t_address": {
        "encoding": "inplace",
        "label": "address",
        "numberOfBytes": "20"
      },
      "t_mapping(t_uint256,t_address)": {
        "encoding": "mapping",
        "key": "t_uint256",
        "label": "mapping(uint256 => address)",
        "numberOfBytes": "32",
        "value": "t_address"
      },
      "t_mapping(t_uint256,t_uint256)": {
        "encoding": "mapping",
        "key": "t_uint256",
        "label": "mapping(uint256 => uint256)",
        "numberOfBytes": "32",
        "value": "t_uint256"
      },
      "t_uint256": {
        "encoding": "inplace",
        "label": "uint256",
        "numberOfBytes": "32"
      }
    }
  }
}